:020000040800F2
:1000000000000220DD020008D90200084535000882
:10001000D9020008D9020008D90200080000000037
:10002000000000000000000000000000D9020008ED
:10003000D902000800000000D90200083535000888
:10004000D9020008D9020008D9020008D902000824
:10005000D9020008D9020008D9020008D902000814
:10006000D9020008D9020008D90200089D31000811
:10007000A931000875230008B5310008C131000816
:10008000D90200080D8A0008D9020008D902000828
:10009000D9020008D9020008D9020008D9020008D4
:1000A000D9020008D9020008D9020008D9020008C4
:1000B000D9020008D9020008D9020008318A0008D4
:1000C000D90200083D8A0008D9020008D9020008B8
:1000D000D9020008D9020008D9020008D902000894
:1000E000D9020008D902000800000000D902000867
:1000F000D9020008D9020008D9020008D902000874
:10010000D9020008D9020008D9020008D902000863
:10011000D9020008D9020008D9020008D902000853
:10012000D9020008D9020008D9020008D902000843
:10013000D9020008D9020008D9020008D902000833
:1001400000000000000000000000000000000000AF
:10015000D9020008D9020008D9020008D902000813
:10016000498A0008D9020008D9020008D90200080B
:10017000D9020008D9020008D9020008D9020008F3
:10018000D9020008D9020008D9020008D9020008E3
:10019000D9020008D9020008D9020008D9020008D3
:1001A000D9020008D9020008D9020008D9020008C3
:1001B000E52E0008D9020008D9020008D90200087B
:1001C000D9020008D9020008D9020008D9020008A3
:1001D000D9020008D9020008D9020008D902000893
:1001E000D9020008D9020008D9020008D902000883
:1001F000D9020008D9020008D9020008D902000873
:10020000D9020008D9020008D9020008D902000862
:10021000D9020008D9020008D9020008D902000852
:10022000D9020008D9020008D90200080000000025
:10023000D9020008D902000800000000D902000815
:10024000D9020008D9020008D9020008D902000822
:10025000D9020008D9020008D9020008D902000812
:10026000D9020008D9020008D9020008D902000802
:10027000D9020008D9020008D902000800000000D5
:10028000D9020008D9020008D902000800000000C5
:0802900000000000D902000883
:1002980010B5054C237833B9044B13B10448AFF3B8
:1002A80000800123237010BD180000240000000006
:1002B800B491000808B5034B1BB103490348AFF3D9
:1002C800008008BD000000001C000024B491000854
:1002D800FEE700BF0D4B0E4A934206D00D4951F878
:1002E800040B43F8040B9342F9D10B4B0B4A93428E
:1002F80004D0002143F8041B9342FBD103F09AFA7F
:1003080008F08AFE00F052F8FEE700BF0000002463
:1003180018000024CC91000818000024840D002443
:10032800704700BF704700BFF8B504461B4F1C4814
:1003380016460D4601F088FB1A4801F085FB03F0CC
:10034800FFF83A6841F28833801A984214D896B177
:10035800013E04F1080220462946760802EBC6024F
:1003680003680830083141F8083C50F8043C9042D2
:1003780041F8043CF4D1F8BD0B4BBFF35B8F1A78FE
:10038800BFF35B8F002AE2D10122BFF35B8F1A70A3
:10039800BFF35B8F03F0D4F83860D8E78C000024F3
:1003A80090000024AC000024E80000242DE98048D7
:1003B800A648BBB000F030FA0021A44800F0C6FA05
:1003C8001821A24800F050FA0346A048ADF80C30B6
:1003D80000F064FA002203999D4801F0FFFA0A210F
:1003E8009A4800F041FA03469848ADF8103000F0FA
:1003F80055FA00220499974801F0F0FA10A800F085
:10040800B3F99DED170A934801F00CFB0F218F48B3
:1004180000F02AFA034618A88F4CADF81430059955
:1004280001F036FB1021894800F01EFA03460DF151
:100438007100DFF860B2ADF81830069901F028FBBA
:100448001121824800F010FA03460DF18200DFF80E
:1004580048A2ADF81C30079901F01AFB12217B481D
:1004680000F002FA03460DF19300DFF83092ADF880
:100478002030089901F00CFB1321744800F0F4F9BE
:10048800034629A8DFF81882ADF82430099901F04D
:10049800FFFA14216D4800F0E7F903460DF1B500A5
:1004A8006E4FADF828300A9901F0F2FA1621674824
:1004B80000F0DAF903460DF1C600694EADF82C30AC
:1004C8000B9901F0E5FA1921604800F0CDF90346CF
:1004D8000E215E48ADF8303000F0C6F903460D2114
:1004E8005A48ADF8343000F0BFF903460C2157489C
:1004F800ADF8383000F0B8F9BDF8381005460D9B56
:1005080008220DF1D700ADF80010ADF804500C9991
:10051800ADF83C5001F0CAFA0423082218A9514842
:1005280001F0FEFA4F4801F09DFE4F4D012147486A
:1005380000F0B8F94D49454800F0ACF90022072110
:10054800484801F0B5FE01220721464884ED000A1B
:100558008BED070A01F0ACFE0222072141488AED23
:10056800000A01F0A5FE032207213E4889ED000A92
:1005780001F09EFE042207213A4888ED000A01F0A6
:1005880097FE05220721374887ED000A01F090FE03
:1005980006220721334886ED000A01F089FE07226A
:1005A800334B3048114683ED000A01F081FE314B90
:1005B80000212C4883ED000A01F06AFE2E4B012130
:1005C800284883ED000A01F063FE2C4B02212548E0
:1005D80083ED000A01F05CFE294B0321214883EDDD
:1005E800000A01F055FE274B04211E4883ED000A3E
:1005F80001F04EFE244B05211A4883ED000A01F054
:1006080047FE224B0621174883ED000A01F040FE01
:10061800F0EE407A1E4B0E4894ED000AC3ED007AC6
:1006280001F000FABFF35B8F2B78BFF35B8F002BD1
:1006380084D0184800F058F800287FF47FAFBFF343
:100648005B8F2870BFF35B8F78E700BF50000024F2
:1006580090000024AC000024C8000024D800002426
:10066800DC00002468000024E800002431030008AE
:10067800E0000024E40000243400002438000024B2
:100688003C000024400000244400002448000024CA
:100698004C000024EC000024CC000024D0000024EE
:1006A800D400002400230A480A4A0B4910B50B4C11
:1006B800436108F09DFC2146064A094808F098FC69
:1006C8002146044A0748BDE8104008F091BC00BF25
:1006D80050000024000000242D030008290300080E
:1006E80090000024AC000024F0B5456893B08668FB
:1006F8000023029509A9C56802AC8DF824300F467D
:100708000495456903680396069506698569C06975
:10071800019305960795089001E054F8043BC3F34C
:100728000726C3F30745C3F30760BC424B708E70BE
:10073800CD7001F8040FF0D101230948094C00F8E5
:10074800033F01F0AFFF206800F1240102F07EFAB8
:1007580009AA2421206802F0FBF913B0F0BD00BFFC
:100768000C010024040000242DE9F04180460025F6
:10077800204892B0204E00F8035F01AC01F092FFD0
:100788000DF1240C27460FCEACE80F000FCED6F89B
:1007980000E009AEACE80F008CF800E06B4632468A
:1007A80012F8011B03F8011BA342F9D10435009B81
:1007B8000436202D47F8043BF0D1019C40460299AD
:1007C800039A049BC8F80040C8F80410059C0699D1
:1007D800C8F80820C8F80C30079A089BC8F81040D9
:1007E800C8F81410C8F81820C8F81C3012B0BDE8B2
:1007F800F08100BF0C010024000000900348002392
:10080800034A0449436108F0F3BB00BF0C0100240C
:10081800000000242D03000870B40E494FF4A066B0
:100828000D4A02240D4B0E4D016040F20711426043
:100838004FF4877283600623C5600A4D868405627B
:1008480080F8274001858285037480F82B3070BCBE
:10085800704700BF000705000105080509050705E1
:1008680006050A06000100041F2982B009D8084BB2
:1008780003EB410213F81130507843EA002002B02C
:10088800704701230C2043EA002002B0704700BFE4
:1008980088900008143001F083B800BF143001F0CC
:1008A8007BB800BF38B500F1140504462DED028B66
:1008B800284601F063F8284601F06EF82846B0EEA5
:1008C800408A01F057F8D0ED007AF8EE677A88EEA2
:1008D800277ABDEC028B84ED0E7A38BDF0B51A4D3F
:1008E80091B000210446079505F100754FF4417059
:1008F800002201230326012705F540750691029180
:1009080006A9ADF8240002A808953025CDE90C23E6
:10091800CDE90E23CDE90A6702F0CAFC40F601339F
:100928004FF07E56ADF80430019800F04DF80323DF
:10093800029A03A904F114000596CDE9035300F0C7
:10094800E5FF11B0F0BD00BF0402040430B5044651
:100958002DED028B83B089B3012240F2011300927E
:10096800ADF80430694604F1300002F0CBFE2046B1
:1009780000F04CF8E01C01F095FE04F1270001F0AE
:10098800A3FD04F1140504F12B0001F09DFD2046A0
:10099800FFF7A4FF284600F0FFFF2846B0EE408A84
:1009A80000F0E8FFD0ED007AF8EE677A88EE277A53
:1009B80084ED0E7A03B0BDEC028B30BD40F201131A
:1009C8000091ADF80430CDE710B584B0034601249A
:1009D800ADF8040003A8ADF80C30ADF80E4001F0F6
:1009E80073FD214603A801F04BFE204602F0AAFD44
:1009F80003A8002101F044FE204602F0A3FD214691
:100A080003A801F03DFE04B010BD00BF2DE9F0437E
:100A1800444C8BB0A063037823B1002528460BB063
:100A2800BDE8F083404A0A230026012762600822B5
:100A38000893202302A9201DC4E90267C4E90423FE
:100A480040264FF4C07700224FF40063C4E90667DC
:100A5800C4E908234FF48056002702220723C4E97B
:100A68000A67CDE902230426032200230827CDE9DB
:100A78000623CDE9046707F083FE054600284CD11C
:100A88004FF001084FF010090126002702A94FF482
:100A980080520190201DCDE902894FF002084FF0E5
:100AA8001009CDE9046707F095FE642002F07AFF8B
:100AB80002A94FF48052201DCDE90467CDE90289CF
:100AC80004264FF003084FF01009002707F082FEB4
:100AD80002A94FF48052201DCDE90467CDE90289AF
:100AE80007F078FE40F232234FF0010C0426019300
:100AF8001027019B02A94FF48052201DCDE904C3A1
:100B0800CDE9026707F066FE201D40F6060107F0F2
:100B180081FE28460BB0BDE8F083012528460BB0BE
:100B2800BDE8F0835001002440410052694A2DE994
:100B3800F04315688FB015B10FB0BDE8F083664B70
:100B480001210C24002611600327D3F8D4204FF686
:100B580083784FF0020908A942F480525F48C3F82D
:100B6800D420D3F8D42002F480520092009AD3F80B
:100B7800E02042F01002C3F8E020D3F8E02002F0B1
:100B880010020192019AD3F8E02042F04002C3F823
:100B9800E020D3F8E02002F040020292029AD3F853
:100BA800E02042F00802C3F8E020D3F8E02002F089
:100BB80008020392039AD3F8E02042F48072C3F843
:100BC800E020D3F8E02002F480720492049AD3F86B
:100BD800E02042F08002C3F8E020D3F8E02002F0E1
:100BE80080020592059AD3F8E02042F02002C3F86B
:100BF800E020D3F8E02002F020020692069AD3F80B
:100C0800E02042F00402C3F8E020D3F8E0300C946E
:100C180003F004030793079BCDE90A67CDE9088928
:100C280004F0D0FC48F23712022308A92C480C948F
:100C3800DFF8C080CDE90A67CDE9082304F0C2FCDB
:100C48004CF20372022308A926480C94CDE90A67DE
:100C5800CDE9082304F0B6FC40F2FF62022308A99C
:100C680021480C94CDE90A67CDE9082304F0AAFCD1
:100C78004FF60C72022308A91C480C94CDE90A67A8
:100C8800CDE9082304F09EFC4FF63F02022308A991
:100C980017480C94CDE90823CDE90A6704F092FCC3
:100CA800D8F83800013002F005FED8F8383006468A
:100CB800581C02F007FE02220746032308A9304603
:100CC8000C9408970B93CDE9092504F07BFC0FB031
:100CD800BDE8F0834801002400440258001002587F
:100CE80000180258000C025800200258001C025834
:100CF80000140258500100242DE9F04FDFF8288431
:100D080006460D46144608F114002DED028B89B0F5
:100D180000AF02F0BDFBD8F814305BB3D8F8183038
:100D28004269002B0BBF022304234FF008094FF040
:100D38001009FB61D8F804304BB3A100E946012A39
:100D480001F1070121F00701ADEB010D6846ADEB9C
:100D5800010D694600F04281022A00F0DB80002A7A
:100D680074D022469847CD462437BD46BDEC028B49
:100D7800BDE8F08FD8F81830002BF5D002234FF0DB
:100D880008094269FB61D8F80430002BD5D1D8F89E
:100D98000030BA617B61002BE6D06B46DA4808EE7A
:100DA800103A02F0BDFB8646F869BA69022800F0DD
:100DB8008E816B46C7F810903969A3EBC4039D4632
:100DC8006300E946B3FBF0F3A9EBC40CC7F818902D
:100DD80009EB830AB869E546ADEB010D0CEB83011D
:100DE800EB46F9603969C7F810A00AEB830AADEB46
:100DF800010DCBF80000F9680AEB8300E94601EB26
:100E08008301CBF80C00386901EB8303C9F800C0F3
:100E1800CBE9010AF868C9E90213C9F80400012AF4
:100E280000F08283022A00F07C82002A00F086818A
:100E38006208494658467B69984718EE103A2437A5
:100E48009D46BD46BDEC028BBDE8F08F002C88D0D6
:100E580098ED0B6A864606F1040CDFEDB66A36F9A2
:100E680022A00EF1080E07EE10AA3CF922A00232C9
:100E780007EE90AAB8EEC77A9442F8EEE77A27EE22
:100E8800267A67EEA67A27EE067A67EE867A0EED60
:100E9800027A4EED017AE2D8F961224698479B4ED4
:100EA800F9690020D8ED046A2B1D9FEDA37A9FED08
:100EB800986ADFED985A22E0F4EEC67AF1EE10FA5D
:100EC800C0F2EF8447F6FE72D1ED017A45F8202092
:100ED80066EEA77AF4EEC77AF1EE10FA40F2F580E2
:100EE800F4EEC67AF1EE10FAC0F2FC8447F6FE7210
:100EF80043F820200230083184427FF634AFD1ED28
:100F0800007A66EEA77AF4EEC77AF1EE10FAD3D833
:100F18003246D9E7002C3FF424AF98ED0B6A864699
:100F2800002206F1040CDFED7C6A06EB820A0EF162
:100F3800080E9AED007A0CEB820A0232DAED007A9A
:100F4800B8EEC77A9442F8EEE77A27EE267A67EE8B
:100F5800A67A27EE067A67EE867A0EED027A4EEDCD
:100F6800017AE2D8F961224698476C4EF969002067
:100F7800D8ED046A2B1D9FED707ADFF8B0C19FEDA4
:100F8800646A20E0F4EEC67AF1EE10FAC0F2A284A8
:100F98003246D1ED017A45F8202066EEA77AF4EEC4
:100FA800C77AF1EE10FA40F28E80F4EEC67AF1EECE
:100FB80010FAC0F28784324643F820200230083104
:100FC80084427FF6D0AED1ED007A66EEA77AF4EED1
:100FD800C77AF1EE10FAD5D86246DAE7002C3FF46A
:100FE800C0AE06F1040CFD6198ED0B6A1D46834600
:100FF80063464FF0000ADFED4A6AB4465CF82A20DF
:101008000BF1080B53F82A600AF1020A82F4000275
:1010180086F4000E5445A2F5000207EE102AAEF53C
:10102800000207EE902AB8EEC77AF8EEE77A27EEC4
:10103800267A67EEA67A27EE067A67EE867A0BEDB1
:10104800027A4BED017AD9D82B46FD692246F9611F
:101058009847344EF9690020D8ED046A2B1D9FED9E
:10106800367ADFF8CCC09FED2A6A1FE0F4EEC67A24
:10107800F1EE10FAC0F21E843246D1ED017A45F83D
:10108800202066EEA77AF4EEC77AF1EE10FA18D9A6
:10109800F4EEC67AF1EE10FAC0F2FB83324643F85A
:1010A80020200230083184427FF65DAED1ED007A0F
:1010B80066EEA77AF4EEC77AF1EE10FAD6D8624651
:1010C800DBE76246EBE7624676E7324610E7A300C5
:1010D8006008073323F00703ADEB030DEC46ADEBD7
:1010E800030DEA46ADEB090D0CEB8003C7F818C0F9
:1010F800EB46ADEB090D0AEB80003B61E946CBE915
:1011080000C3C9E900A08AE6A40100240280FFFF09
:1011180004FF7F3F00FEFF46000000300082FF7F93
:101128000000003482FF7F008C010024007E0080D4
:101138007E0080FF0000003804FF7FBF002C00F015
:10114800EC82F969D8F82030022900F01B8303EB00
:101158008E0ADBF80C104FEA8E03C7F800B006F1D0
:10116800040C5FED0C5A7B60DBF80830D7F818E008
:10117800FB600AF10403C7F818909B46D7F8109053
:10118800B9603D613CF9221036F9223006EE901A1A
:101198003AF9221006EE103A98ED0B5A07EE101A9B
:1011A800F8EEE66AB8EEC66A3BF92210B8EEC77ADE
:1011B800530807EE901A66EEA56A26EE256AF968C6
:1011C80027EE257A09EB8300F8EEE77A0EEB830524
:1011D80026EE056A01EB830127EE057A023266EEF8
:1011E800856A67EEA57A85ED006A9442C0ED006ACB
:1011F80081ED007A98ED0B7AB86867EE877A00EB94
:101208008303C3ED007ABDD8D7F800B0D7F818909B
:101218003D69620849467B6958469847D8F828309E
:1012280079680022D8ED046A1944D9F800E0D9F8A1
:1012380004C02B1D01F104088A461FED417AC7F846
:101248001880B14E9FEDB16ADFEDB15AD7F81C8016
:1012580052E0F4EEC67AF1EE10FAC0F2DC8247F6FC
:10126800FE7B0CEB010045F822B0D0ED007A66EE6B
:10127800A77AF4EEC77AF1EE10FA4CD9F4EEC67AF2
:10128800F1EE10FAC0F2D08247F6FE70B8F1020F04
:1012980043F822002CD0D9F808000844D0ED007A91
:1012A80066EEA77AF4EEC77AF1EE10FA37D9F4EEC3
:1012B800C67AF1EE10FAC0F2E38247F6FE7BD9F85F
:1012C8000C004AF822B00144D1ED007A66EEA77A04
:1012D800F4EEC77AF1EE10FA1FD9F4EEC67AF1EE01
:1012E80010FAC0F2C58247F6FE71B86940F82210BC
:1012F800023294427FF6A1AD51080EEB81008900BD
:10130800D0ED007A66EEA77AF4EEC77AF1EE10FA1D
:101318009FD8B346A5E73046B8E73146E5E7B34678
:10132800CDE7002C00F0F981FA69D8F82030022ABC
:1013380000F0FA8103EB8E0ADBF80830C7F800B03A
:1013480006F1040CFB604FEA8E030AF10402DFED9C
:10135800715A7B60DBF80C309346D7F818E0BB6015
:101368000023C7F81890D7F810903D6156F823105D
:101378005A0898ED0B5A07EE901A5CF8231009EBFF
:101388008200B8EEE76A07EE901A5AF823100EEBBF
:101398008205F8EEE76A07EE901A0BEB830126EE5A
:1013A800256A0233B8EEE77AD1ED007A66EEA56ACF
:1013B800F968F8EEE77A9C4227EE257A01EB82017C
:1013C80026EE056A66EE856A27EE057A67EEA57A47
:1013D80085ED006AC0ED006A81ED007A98ED0B7A20
:1013E800B86867EE877A00EB8202C2ED007ABDD852
:1013F800D7F800B0D7F818903D69584662084946B2
:101408007B699847D8F8283079680022D8ED046AB3
:1014180019442B1DD9F800C08B460431D9F8048033
:10142800C7F814B09FED3F7AD7F81CB0DFF8ECE0AE
:101438009FED366A384EB961FB6150E0F4EEC67A2A
:10144800F1EE10FAC0F20682304608EB010A45F8C0
:101458002200DAED007A66EEA77AF4EEC77AF1EEAA
:1014680010FA4BD9F4EEC67AF1EE10FAC0F2F9810F
:101478003046FB69BBF1020F43F822002BD0D9F8A4
:1014880008000844D0ED007A66EEA77AF4EEC77A31
:10149800F1EE10FA36D9F4EEC67AF1EE10FAC0F28F
:1014A800D2813046D9F80CA07B69514443F8220018
:1014B800D1ED007A66EEA77AF4EEC77AF1EE10FA6B
:1014C8001ED9F4EEC67AF1EE10FAC0F2B5813146B3
:1014D800BB6943F82210023294427FF6AEAC510841
:1014E8000CEB81008900D0ED007A66EEA77AF4EE65
:1014F800C77AF1EE10FAA1D87046A6E77046B8E7A9
:101508007146E5E77046CDE70280FFFF04FF7F3FA5
:1015180000FEFF46000000300082FF7F007E008052
:101528000000003404FF7FBF002C00F0F680D8F8DC
:1015380020304FEA8E02BD60002103EB8E0E06F1CB
:10154800040C1FED096A0EF104003D69D7F818A0D4
:10155800FA60C7F8189056F821204FEA51095CF84C
:10156800213082F40002D8ED0B6A83F40003A2F55F
:101578000002A3F5000307EE102A05EB890207EE27
:10158800903A0AEB8903B8EEC77A4FEA8909F8EE70
:10159800E77A27EE067A67EE867A27EE267A67EEEE
:1015A800A67A83ED007AFB69C2ED007A022B27D078
:1015B8005EF8212050F8213082F4000283F4000301
:1015C800A2F50002A3F5000307EE902ADBF8082035
:1015D800B8EEE77A07EE903A4A44DBF80C30F8EEBA
:1015E800E77A27EE067A4B4467EE867A27EE267A64
:1015F80082ED007A98ED0B7A67EE877AC3ED007A70
:1016080002318C42A7D8D7F81890584662087B69EF
:101618004946BD689847D8F82830F9680022D8EDBF
:10162800046A19442B1DD9F800C08B460431D9F837
:101638000480C7F814B01FED457AD7F81CB0DFF85E
:10164800C8E29FEDAD6AAD4EB961FB6150E0F4EEC2
:10165800C67AF1EE10FAC0F2C280304608EB010AF1
:1016680045F82200DAED007A66EEA77AF4EEC77A3A
:10167800F1EE10FA4BD9F4EEC67AF1EE10FAC0F298
:10168800BC803046FB69BBF1020F43F822002BD027
:10169800D9F808000844D0ED007A66EEA77AF4EE8F
:1016A800C77AF1EE10FA36D9F4EEC67AF1EE10FAEE
:1016B800C0F2AA803046D9F80CA07B69514443F89F
:1016C8002200D1ED007A66EEA77AF4EEC77AF1EE41
:1016D80010FA1ED9F4EEC67AF1EE10FAC0F286803E
:1016E8003146BB6943F82210023294427FF6A5AB1B
:1016F80051080CEB81008900D0ED007A66EEA77ADC
:10170800F4EEC77AF1EE10FAA1D87046A6E7704653
:10171800B8E77146E5E77046CDE7224649465846A0
:101728007B699847FFF789BB98ED0B6A002306F1A0
:10173800040CDFED736AB869D7F810A006EB8302D2
:101748000CEB830192ED007A5A08D1ED007A02334E
:10175800B8EEC77A00EB8201F8EEE77A0AEB82026C
:101768009C4227EE267A67EEA67A27EE067A67EE7F
:10177800867A81ED007AC2ED007ADFD84FEA8E03CF
:101788007B603AE698ED0B6A06F1040CDFED5D6AC2
:10179800B869D7F810A036F922303CF9221007EEC4
:1017A800103A530807EE901A0232B8EEC77A00EBE7
:1017B8008301F8EEE77A0AEB8303944227EE267A50
:1017C80067EEA67A27EE067A67EE867A81ED007ACA
:1017D800C3ED007ADFD84FEA8E037B6019E5F0EE9F
:1017E800675AFEEEE45A15EE900A37E7F0EE675AAC
:1017F800FEEEE45A15EE901A73E7F0EE675AFEEE25
:10180800E45A15EE900A3DE7F0EE675AFEEEE45A08
:1018180015EE900A4FE767EEA57AFDEEE77A17EE28
:10182800900A0FFA80FB1CE567EEA57AFDEEE77AD1
:1018380017EE900A00B229E5F0EE675AFEEEE05A7C
:1018480015EE901A44E6F0EE675AFEEEE05A15EEF1
:10185800900A27E6F0EE675AFEEEE05A15EE900A77
:10186800F3E5F0EE675AFEEEE05A15EE900A00E650
:1018780067EEA57AFDEEE77A17EE901A09B234E51D
:1018880067EEA57AFDEEE77A17EE900A0FFA80FB6D
:1018980015E5F0EE675AFEEEE45A15EE902AFFF7CA
:1018A800FEBB67EEA57AFDEEE77A17EE902A12B234
:1018B800FFF70ABBF0EE675AFEEEE45A15EE902ADF
:1018C800FFF7DBBBF0EE675AFEEEE05A15EE902A02
:1018D800FFF772BBF0EE675AFEEEE05A15EE902A5B
:1018E800FFF757BB67EEA57AFDEEE77A17EE902A69
:1018F80012B2FFF7FDBA00BF04FF7F3F82FF7F00EF
:1019080000000030000000387E0080FF70B5164CE3
:10191800154684B0046004F1080601AB07C986E8DF
:101928000700D4ED047AF5EEC07A83E80700F1EEFB
:1019380010FA15DDF7EE006A86EEA77A84ED0B7AC9
:1019480075B1204640F8145F01F0A2FD0346074A2E
:1019580000201969064BE160E261636204B070BD62
:10196800012004B070BD00BF8C01002400200030AD
:101978000000003000680830704700BFB1F5806F84
:1019880003680A4628BF4FF48062B1F5806F9A60F9
:1019980094BF0020012070470068143001F0AEBDEC
:1019A80070B5046882B0084E0D46A36804F11400AF
:1019B800626AE1699B00009601F06CFD0020C4E9B1
:1019C800000502B070BD00BF010D0008024B0022E7
:1019D800C3E90522704700BF8C01002430B52DED06
:1019E800028B83B0044601231546ADF80410173066
:1019F800BDF80410B0EE408A0180637600F064FD03
:101A0800B5FA85F3002100225B09257584ED048A67
:101A1800A5756375A160C4E9002203B0BDEC028B13
:101A280030BD00BF20EE007ADFED067A27EE000A0F
:101A380060EE277A80ED020AFCEEE77AC0ED017AC3
:101A4800704700BF00FF7F4790ED046AB7EE007A49
:101A5800DFED0E5A0346D0ED036AC5EE867A77EEBF
:101A6800A67AF4EEC77AF1EE10FAC8BF77EEC77A15
:101A780090ED027AB4EEE77AC0ED037A1730F1EE12
:101A880010FACCBF597D997D00F0FABD0000F042F4
:101A980082B000230322ADF80410BDF80410827050
:101AA80001800374C37002B0704700BF70B483B084
:101AB8000325082A06ACADF804108570114634F8E1
:101AC800046B28BF0821ADF80030042ABDF80430A3
:101AD8002488BDF8005003804FF0000306818580FC
:101AE80084810174C37008D8022A10D802D1012257
:101AF800C371827103B070BC70470122C371C37295
:101B0800C37382718272827303B070BC7047012202
:101B1800C371C3728271827203B070BC704700BF18
:101B28002DE9F04FDB4F0026DB4C8FB007F138056D
:101B3800426003709646A4F80961844603960696A7
:101B4800BE61C4F8FD60C4F80161C4F80561C4F859
:101B58002461C4E94A75C7E90066C7E90266C7E9AE
:101B68000466C4E94366C4E94566C4E94766CDE945
:101B78000466CDE90766CDE90966CDE90B6684F808
:101B8800FC20426884F80C62002A00F091820D461D
:101B98000868A0464968EB68AA683E80A8E80F0074
:101BA8002B7C88F800302B7C84F8FD302B7C002BB4
:101BB80040F09F82DCF80430012B40F2B4812B46C0
:101BC800B64A002153F8119F7980D3F804809E68A3
:101BD800D868C4F81190C2F804809660D0601B7C65
:101BE800137495F8213084F8FE3095F82130002BD5
:101BF80040F08382DCF80430022B40F294812B46BB
:101C0800A74A002153F8229FB980D3F804809E6820
:101C1800D868C4F82290C2F804809660D0601B7C13
:101C2800137495F8323084F8FF3095F83230002B71
:101C380040F05B82DCF80430032B40F274812B46C1
:101C4800984A002153F8339FF980D3F804809E689E
:101C5800D868C4F83390C2F804809660D0601B7CC2
:101C6800137495F8433084F8003195F84330002B0D
:101C780040F04782DCF80430042B40F25481A84637
:101C88000023894E58F8440F3B81D8F80410D8F83F
:101C98000C30D8F808200FC698F81030337095F833
:101CA800543084F8013195F8543013B1012384F885
:101CB8000C32DCF80430052B40F235812B467B4A88
:101CC800002153F8559F7981D3F804809E68D8681D
:101CD800C4F85590C2F804809660D0601B7C1374D9
:101CE80095F8653084F8023195F8653013B1012311
:101CF80084F80C32DCF80430062B40F214812B46B1
:101D08006B4A002153F8669FB981D3F804809E6816
:101D1800D868C4F86690C2F804809660D0601B7CCE
:101D2800137495F8763084F8033195F8763013B14A
:101D3800012384F80C32DCF80430072B40F2F380DE
:101D48002B465C4A002153F8779FF981D3F8048029
:101D58009E68D868C4F87790C2F804809660D0600E
:101D68001B7C137495F8873084F8043195F8873014
:101D7800002B40F0CA81DCF80430082B40F2D380F5
:101D8800A84600234C4E58F8880F3B82D8F8041018
:101D9800D8F80C30D8F808200FC698F810303370EF
:101DA80095F8983084F8053195F89830002B40F074
:101DB8001D82DCF80430092B40F2B5802B463F4ADF
:101DC800002153F8999F7982D3F804809E68D868D7
:101DD800C4F89990C2F804809660D0601B7C137494
:101DE80095F8A93084F8063195F8A930002B40F011
:101DF800F981DCF804300A2B40F295802B46304AF2
:101E0800002153F8AA9FB982D3F804809E68D86845
:101E1800C4F8AA90C2F804809660D0601B7C137442
:101E280095F8BA3084F8073195F8BA30002B40F0AD
:101E3800D581DCF804300B2B75D92B46214A0021BB
:101E480053F8BB9FF982D3F804809E68D868C4F819
:101E5800BB90C2F804809660D0601B7C137495F820
:101E6800CB3084F8083195F8CB30002B40F0A881AE
:101E7800DCF804300C2B56D9A8460023124E58F82B
:101E8800CC0F3B83D8F80410D8F80C30D8F80820C9
:101E98000FC61BE000400030C0010024D10100241F
:101EA800E2010024F30100240402002415020024A6
:101EB8002602002437020024480200245902002484
:101EC8006A0200247B0200248C02002498F8103057
:101ED800337095F8DC3084F8093195F8DC3013B1AB
:101EE800012384F80C32DCF804300D2B1BD92B4667
:101EF800C64A002153F8DD9F7983D3F804809E6891
:101F0800D868C4F8DD90C2F804809660D0601B7C65
:101F1800137495F8ED3084F80A3195F8ED3013B163
:101F2800012384F80C325FFA8EF2B9484FF480210D
:101F38000023C4F848210122C4F830010820C4F85D
:101F4800341194F80C12C4F8383184F84431C4E9D7
:101F58005533C4E94F20002900F0BD8084F845318D
:101F680084F84C21C4F85C219CF800300020002142
:101F7800C4E95801F3B101220021013B84F868212A
:101F8800C4E95D12082B0ED8DFE813F009001E0122
:101F98002301D100D600DB00E000C300CA00032300
:101FA8004022C4E95B329B4802F03CF9034648B141
:101FB800FFBEFEE7974884F8683102F033F903461C
:101FC8000028F5D103A99348039302F087FA054640
:101FD800002840F0F38040F2FF7302220420002121
:101FE800CDE9082394F8FC30CDE90A01002B00F074
:101FF800E2800627DFF848B221E0022B00F0AC802F
:10200800012B40F0FB809AF80130012B00F0F4809E
:10201800002B814B18BF002306A97E48069307971B
:1020280001F024FD002840F0E580013594F8FC30EB
:10203800EDB2AB4240F2BF80784B53F825700FFAEF
:1020480085F808EB081804EB080A504600F03CFA3B
:1020580005EB051323441B7C042B00F3AA80022BF9
:1020680000F3A58000F084806319002283F8EE2035
:1020780014F80830002BC0D19AF80130062B00F074
:10208800E380072B00F0DE80022B00F0BD80032BDD
:1020980000F0B880002B00F0B380012B00F0D68050
:1020A800042B00F0D580052B5D4B18BF0023B3E748
:1020B8005FFA8EF3564D4FF480200121C4F8483161
:1020C8000823C4F8382184F84421C4E95522C4E916
:1020D8004C50C4E94F1301210022032384F8451111
:1020E80084F84C21C4F85C313EE7012384F80C32B3
:1020F800A0E5012384F80C325CE5012384F80C3256
:1021080078E5012384F80C32B4E5012384F80C3215
:1021180031E640F2FF134FF49072C4E95B3242E7B4
:1021280040F2FF334FF4A072C4E95B323BE71F2350
:10213800A022C4E95B3236E73F23C022C4E95B3200
:1021480031E77F23E022C4E95B322CE7FF234FF419
:102158008072C4E95B3226E79AF80130042B24D058
:10216800052B20D0EBB1012B2E4B18BF002353E7D2
:102178000121631908F10409002201971E462F4620
:10218800A144154683F8EE104846013500F09CF945
:1021980096F8EE3009F10409AB42F5DC3D46019FA3
:1021A80066E7214B38E7214B36E7214B34E702211C
:1021B800DFE70321DDE70FB0BDE8F08FFFBEFEE7E4
:1021C800012384F80C3253E607236022C4E95B320A
:1021D800E9E60F238022C4E95B32E4E6012384F8B0
:1021E8000C3226E6012384F80C3202E6012384F837
:1021F8000C32DEE5FFBEFEE75B460DE700230BE78A
:102208000C4B09E70C4B07E70C4B05E79D02002434
:1022180000200240F00200240002B025C890000807
:102228000000B84F0008302E0004002A0001802169
:102238001000C010000021430080F03E0040C03A6A
:102248002000F014034BE7E6034BE5E6034BE3E617
:10225800034BE1E68000501D0800900C0000524737
:102268000000844B38B5094C40F2FF724FF0011161
:1022780004F59875284602F0DFF8284694F8FC2003
:10228800D4F82811BDE8384001F044BEC00100244C
:10229800064B0D29D3F8283198BF03EB41031B885F
:1022A80000EE103ABBEEC80A704700BFC001002418
:1022B800064B0D29D3F82C3198BF03EB011333F8E3
:1022C800123000EE103ABBEEC80A7047C001002475
:1022D800224B02689A4200D07047214B0920002106
:1022E800D3F8D820F0B51F4C42F02002002583B067
:1022F80094F80C624FF48067C4F8B451C4F8B8512C
:10230800AE42C3F8D82004F5CA75D3F8D83014BF44
:1023180000224FF48072144E03F02003C4F8946135
:1023280000260193019B4FF40053C4F8B0214FF4E9
:102338000062C4E966012846C4E96867C4E96A23FB
:1023480002F0EEFA08B1FFBEFEE704F59873C4F890
:102358007C51C4F8CC3103B0F0BD00BF002002406E
:1023680000440258C001002440000240014802F025
:10237800C9BD00BF5403002402682DE9F84F4C4B37
:102388009A4201D0BDE8F88F4A4E96F80C32002BDD
:10239800F8D096F8FC20002A76D00024371D06F5E0
:1023A800867506F1FC09A04616E05FFA83FA03F089
:1023B800010119F80FBC384600F062F9381DBBF16D
:1023C800010FCAF3400123D896F8FC2001341137D5
:1023D8000235A3B29A4227D919F8013F002BF5D04C
:1023E800D6F828210021D6F82C3132F814008A4674
:1023F8002A7803EB041323F812002B8801339BB2CD
:102408002B8099F800209A42CFD8A5F80080D0E711
:1024180000F036F9BBF1020F07F10800CAF380019A
:10242800D2D000F02DF9CFE796F80C224FF009082A
:102438004FF00009204B002A4FF000044FF480654C
:102448004FF400604FF4005114BF00224FF4807223
:10245800C6F89431C6E96689C6E96845C6E96A01DD
:1024680000231648C6E96C23C6F8B83102F058FABA
:1024780008B1FFBEFEE796F8FC20D6F828111048F0
:10248800BDE8F84F01F046BD0B4B0924002500209C
:102498004FF480614FF400684FF40059C6F8943146
:1024A800C6E96645C6E96801C6E96A89D8E700BF92
:1024B80000200240C00100244000024054030024D0
:1024C800F0020024704700BF30B583788FB004460F
:1024D800022B37D0032B33D0012B31D000230A93A2
:1024E800E378012B2AD0022B28D000230B9300235A
:1024F80020460C9301F0DEF90546204601F0E2F98A
:1025080023780990082B13D8DFE803F01F324558C9
:102518006B7E91A40500594BD3F8E02042F48072F9
:10252800C3F8E020D3F8E03003F480730893089BE5
:10253800284609A903F046F80FB030BD0B93D6E73B
:102548000A93CDE711230A93CAE74C4B284609A9F9
:10255800D3F8E02042F00102C3F8E020D3F8E030DD
:1025680003F001030093009B03F02CF80FB030BD7B
:10257800424B284609A9D3F8E02042F00202C3F8EA
:10258800E020D3F8E03003F002030193019B03F04D
:1025980019F80FB030BD394B284609A9D3F8E02007
:1025A80042F00402C3F8E020D3F8E03003F004035B
:1025B8000293029B03F006F80FB030BD2F4B28465C
:1025C80009A9D3F8E02042F00802C3F8E020D3F8C4
:1025D800E03003F008030393039B02F0F3FF0FB00E
:1025E80030BD264B284609A9D3F8E02042F0100256
:1025F800C3F8E020D3F8E03003F010030493049B01
:1026080002F0E0FF0FB030BD1C4B284609A9D3F8F3
:10261800E02042F02002C3F8E020D3F8E03003F0D5
:1026280020030593059B02F0CDFF0FB030BD134B7F
:10263800284609A9D3F8E02042F04002C3F8E02078
:10264800D3F8E03003F040030693069B02F0BAFF8C
:102658000FB030BD094B284609A9D3F8E02042F055
:102668008002C3F8E020D3F8E03003F0800307933A
:10267800079B02F0A7FF0FB030BD00BF004402580F
:1026880070B506460D4601F015F90446304601F0CE
:1026980019F92A1E0146204618BF0122BDE87040DC
:1026A80003F082B92DE9F04FA44C0346ABB02046A5
:1026B80023655F7893F8008003F0FEFAE8B9012FEC
:1026C8004FF001059E49034614BF4FF480124FF4A2
:1026D8000002E060A560C4E9001592FAA2F2B2FA1D
:1026E80082F24FF48076E0612046013A2362C4E921
:1026F800042603F075FA034618B101202BB0BDE893
:10270800F08F4FF0660C41F2883220460EA91496DD
:10271800179313931B93CDF838C0CDE91533CDE942
:10272800193303F0E7FA0028E7D1992341F28832F8
:102738000EA920460E9303F0DDFA0028DDD14FF0F4
:10274800000B4FF0010C4FF0050A4FF080792490F0
:1027580008AA21901CA9299041F28833CDF870A0CD
:10276800CDF89490CDE908BC4FF0100B4FF0010C58
:10277800CDE90ABC4FF0000B4FF4800CCDE9226084
:10278800CDE927002046CDE90CBC03F01FFC00284A
:10279800B3D1ADF808001390CDE91460CDE916095E
:1027A800CDE91850CDE91A00002F00F0CB80F023B6
:1027B800ADF80830C02341F288320EA95F480E9365
:1027C80003F098FA002898D141F288325B4802A9B0
:1027D80003F0FAFA044600288FD1002601274FF4A7
:1027E80080754FF080794FF0000A4FF4800B2194E8
:1027F80041F28833299408AA1CA950482295CDF89B
:102808009490CDE90867CDE9234410260127CDE946
:1028180027440524CDE90A671C94CDE90CAB03F0E5
:10282800D5FB00287FF469AF012406238DF8070043
:1028380041F2883213901CA91B90219029900E9484
:102848001C93CDE91450CDE91609CDE91900CDE95D
:102858002250CDE92400CDE92700384803F04AFA90
:1028680000287FF44AAF10260127052041F288335B
:1028780008AA1CA91C903148CDF89490CDE90A67A4
:1028880002260227CDE90CABCDE9086703F09EFBD1
:1028980000287FF432AF41F288320EA9274803F0AE
:1028A80029FA00287FF429AF402341F288320DF13C
:1028B800070122488DF8073003F086FA00287FF4D4
:1028C8001CAF10260127052002AA41F288330EA961
:1028D8000E901A48CDF85C90CDE904674026402751
:1028E800CDE906ABCDE9026703F070FB0646002888
:1028F8007FF403AF2295002521960520299601270C
:102908001C9008AA41F288331CA90C48CDF8949071
:10291800CDE92366CDE927660126CDE908561026BC
:10292800CDE90CABCDE90A6703F050FB00287FF432
:10293800E4AEB8F1000F50D00020DFE6D003002449
:1029480000500052612341F288320EA920460E93AE
:1029580003F0D0F900287FF4D0AE41F2883202A902
:10296800204603F0AFFA00287FF4C7AEBDF8083060
:102978000625259041F2883223F07803219029908A
:102988001CA943F0400322961C95ADF80830CDE908
:102998002300CDE92700204603F0ACF900287FF496
:1029A800ACAE1026012720460225022441F28833C6
:1029B80008AA1CA9CDF870A0CDF89490CDE90A67B3
:1029C80000264FF48007CDE90845CDE90C6703F0F0
:1029D800FDFA00283FF4EEAE8FE6EB24A0264FF474
:1029E800005706251C9400244FF0805000234FF414
:1029F80080784FF4406929900EAA1CA90C48CDE9AB
:102A08001E67CDE920454FF440464FF0407700243B
:102A18000025CDE92733CDE92289CDE92467CDE921
:102A28000E4503F047FB003818BF012066E600BFDB
:102A3800D0030024B1F5807F4FF000034FF4806C81
:102A480028BF4FF480712DE9F04FA3B04FF4807583
:102A58004FF0020E4FF400574FF0807A06261446C6
:102A68001091079014A941F2883238480C951A95AC
:102A7800CDF818E0CDF834C009970E930B93139353
:102A88001D9319932193CDF83CA01496CDE91133E9
:102A9800CDE91B33CDE91F3303F02CF918B1012020
:102AA80023B0BDE8F08F022602274FF010084FF040
:102AB80001094FF0050B6A4641F2883314A92348EF
:102AC800CDF874A0CDF850B0CDE9006700264FF4DA
:102AD8008007CDE90289CDE9046703F077FA002879
:102AE800DDD141F2883206A9184803F003F900281D
:102AF800D5D1214641F28832144803F065F90446DD
:102B08000028CCD11A954FF4800519946A4621946F
:102B180014A941F28833CDF850B0CDF874A0CDE9AE
:102B28001F440024CDE9044500240125CDE91B00FC
:102B38000648CDE90289CDE9004503F047FA003897
:102B480018BF012023B0BDE8F08F00BFD0030024D8
:102B58002DE9F84F10F0FF04164620F070475FFA91
:102B680081F922D1FF2926D90B0A3C46A2EB070896
:102B780003F1FF3B4FEA032A07EB032508EB0402A6
:102B8800204604F580744FF48071FFF753FFAC4280
:102B9800F4D107F5807706EB0A0207EB0B20B9F1B1
:102BA800000F4CD10020BDE8F88FFF29C4F58078CC
:102BB80018D8C84505D33846FFF73CFF0020BDE8C4
:102BC800F88FA9F58079414638464C44FFF732FF23
:102BD80006EB080207EB08002146FFF72BFF002051
:102BE800BDE8F88FA1F58073464441463846234432
:102BF800B8441F0ADCB207F1FF39FFF71BFFB7B172
:102C08004FEA072A454608EB0727A6EB080B0BEB0C
:102C18000502284605F580754FF48071FFF70AFF15
:102C2800BD42F4D108F58075564405EB0928002CFF
:102C3800B8D0324621464046FFF7FCFEB2E7494687
:102C4800FFF7F8FE0020BDE8F88F00BF2DE9F04F30
:102C5800DFF82081A5B000EA0808884500F28380E3
:102C68008946434D49E04FF0020A4FF0020B169790
:102C78001F96CDE902AB4FF0100A4FF0010BCDE9DA
:102C880000ABCDE904AB4FF0000A4FF4800BCDE95F
:102C980006AB03F09BF9034641F2883208A928469F
:102CA800002B5CD103F026F8844641F2883302AA4F
:102CB80016A92846BCF1000F51D1169701271F9677
:102CC800002608F580581C94CDF86CC0CDF88CC04F
:102CD800CDE90267DDE900AB00264FF48007CDE9B6
:102CE8001DCCCDE921CCCDE904ABCDE9066703F0D5
:102CF8006DF9002833D1C14535D3D7204FF4806111
:102D08004FF400520023089006200F9128F07041DC
:102D18004FF480740B92099141F2883216A91690EB
:102D280028460D931F9305271B934FF08076239316
:102D38000E941C94CDE91033CDE91233CDE9143348
:102D4800CDE91D33CDE9213302F0D4FF844641F2A9
:102D5800883302AA16A92846BCF1000F83D00120A7
:102D680025B0BDE8F08F002025B0BDE8F08F00BF8A
:102D7800D003002400F0FFFF3E4B02682DE9F04726
:102D88009A428CB04FF00005CDE90755CDE90955B9
:102D98000B9502D00CB0BDE8F087374B02263749B7
:102DA80005AFD3F8D420B146DFF8D4A04FF003081C
:102DB80042F48042C3F8D420D3F8D42002F48042ED
:102DC8000092009AD3F8E02042F04002C3F8E020D5
:102DD800D3F8E02002F040020192019AD3F8E020F3
:102DE80042F02002C3F8E020D3F8E02002F02002ED
:102DF8000292029AD3F8E02042F01002C3F8E020D1
:102E0800D3F8E02002F010020392039AD3F8E020EE
:102E18003243C3F8E020D3F8E03033400493049BF6
:102E280003C90590ADF81810DAF85040344402365A
:102E3800204600F03FFD034620461C4600F042FDB8
:102E480017F8013B024607A920460B93CDE907294D
:102E5800CDE9095802F0B6FB0E2EE5D100225C2020
:102E6800114601F0B1FB5C2001F0E8FB0CB0BDE8B5
:102E7800F08700BF00500052004402580891000833
:102E8800D0030024124B02689A4200D07047114ABE
:102E9800D2F8D43070B523F4804302250E4EC2F820
:102EA800D430346D2C440235204600F003FD03462F
:102EB80020461C4600F006FD0146204602F0A6FC0E
:102EC8000E2DEED15C20BDE8704001F0C5BB00BFFF
:102ED8000050005200440258D0030024014803F077
:102EE80071B900BFD0030024F8B5036871B9026A4C
:102EF80000F1280500F5AC74012A0CBF002240221D
:102F08008BBB1D495723C0F858110DE0426A00F1E8
:102F1800C00500F5E874012A0CBF00224022EBB17D
:102F280016495A23C0F8D01100214FF480504FF4AD
:102F380080674FF4804663604FF40033A2604FF41B
:102F48008072E16061622362C4E90470C4E90662C8
:102F5800204601F0E5FC58B1FFBEFEE708495823BA
:102F6800C0F8D011E0E707495923C0F85811DBE74A
:102F7800C5E92044A563F8BD100002407000024076
:102F880028000240580002402DE9F043831D054601
:102F98008BB0041D05F10A01083005F10C020593F8
:102FA800AB69CDE90640CDE90812002B3DD0EB69AD
:102FB800B3FA83F84FEA58180222012305AE0AAF84
:102FC8004FF006090192CDE9023356F8044B2B79EC
:102FD8002278934216D02B68F3B1012B02D1F2B1BB
:102FE8000A230493204600F06DFC03462046009314
:102FF80000F060FC694602F0E5FABE42E5D10BB08C
:10300800BDE8F083697963789942E4D1B8F1000F9B
:10301800F3D02B68002BE0D1CDF81090E2E763786D
:10302800022B14BF0A230823DBE74FF00108C3E78C
:10303800534A0368934230B505468BB055D02032C9
:10304800934252D04F4A934204D02032934201D047
:103058000BB030BD4C4C4D48D4F8E03043F0010380
:10306800C4F8E030D4F8E03003F001030593059B81
:10307800D4F8E03043F00803C4F8E030D4F8E03086
:1030880003F008030693069BD4F8E03043F04003AE
:10309800C4F8E030D4F8E03003F040030793079B0E
:1030A800D4F8F03043F40003C4F8F030D4F8F0302A
:1030B80003F400030893089BFFF766FFD4F8D830A1
:1030C800296843F001032F4A3048C4F8D830891AD8
:1030D800D4F8D83018BF012103F001030993099BE4
:1030E8000BB0BDE83040FFF7FFBE274C2848D4F8A6
:1030F800E03043F00103C4F8E030D4F8E03003F0E6
:1031080001030093009BD4F8E03043F01003C4F8A7
:10311800E030D4F8E03003F010030193019BD4F8B9
:10312800E03043F04003C4F8E030D4F8E03003F076
:1031380040030293029BD4F8F03043F48003C4F8B0
:10314800F030D4F8F03003F480030393039BFFF7C7
:103158001BFFD4F8D830296843F00103084A0C480B
:10316800C4F8D830891AD4F8D83018BF012103F030
:1031780001030493049B0BB0BDE83040FFF7B4BED5
:1031880004580140045C01400044025880060024B1
:1031980024040024014801F0B5BE00BF7C050024CA
:1031A800014801F0AFBE00BFF4050024014801F05A
:1031B800A9BE00BFD8070024014801F0A3BE00BF84
:1031C800500800241A4A0368934210B40BD02032E6
:1031D800934208D0174A934216D02032934213D014
:1031E8005DF8044B7047144B0022D3F85442C3F8DF
:1031F8005822002CF4D0D3F84802D3E9931223467E
:103208005DF8044B520818470B4B0022D3F8B04422
:10321800C3F8B424002CE3D0D3F8AC24D3F8A81412
:10322800D3F8A404520823465DF8044B184700BF9E
:1032380004580140045C014024040024184A03682F
:10324800934210B40BD02032934208D0154A9342CF
:1032580017D02032934214D05DF8044B7047124BBC
:10326800D3E994245208C3F85822002CF4D0D3E9A7
:103278009201234601EB820100EB82005DF8044BCA
:103288001847094BD3F8AC24D3F8B0445208C3F814
:10329800B424002CE0D0D3F8A814D3F8A404E8E7A9
:1032A80004580140045C014024040024000000008C
:1032B8002DE9F04F0C684FF41778DFF8D09185B0FE
:1032C80008FB04F8012C09EB080CC0F800C000F357
:1032D80097804FF0000A0E460F466546CCF850A27C
:1032E800CCE992AA0FCE0FC50FCE0FC563A3D3E9C1
:1032F800002364A1D1E90001CDE9022304AB03EB6B
:103308008403CDE9000153F8102C53F8083C96E8E3
:103318000300CCF82820CCF8C0303B6985E80300CE
:10332800042B0CD8DFE803F0707A848E03004FF486
:1033380017734F4A03FB04939A64C3F8E020BA69F1
:10334800002A43D03A6A4FF417730121002A03FB7D
:1033580004930CBF02220322C3E90B21FA69002A55
:1033680041D1796A4FF41773003903FB049318BFEE
:103378000121C3E931127B69022B05D83D493E4A38
:1033880011F803A052F823B04FF41772002508F182
:103398002800022302FB04945946484452466564B7
:1033A8006563E565C4F8DC50C4F8CC50C4F8F45043
:1033B800C4E90F55C4E91555C4E93555C4E93B5569
:1033C80004F07CFF002847D0FFBEFEE7396A4FF4BF
:1033D8001773003903FB049318BF0121C3E90B12CB
:1033E800FA69002ABDD07A6A4FF417730121002ABE
:1033F80003FB04930CBF02220322C3E93121BAE77D
:10340800012005B0BDE8F08F4FF417734FF4FA525E
:1034180003FB04939A64C3F8E02090E74FF4177312
:103428004FF47A5203FB04939A64C3F8E02086E7CA
:103438004FF417734FF4FA4203FB04939A64C3F8EA
:10344800E0207CE74FF417734BF6803203FB0493BC
:103458009A64C3F8E02072E708F1C0005246594662
:103468000223484404F02AFF0028CAD0FFBEFEE722
:1034780000770100109100081491000824580140B9
:10348800245C014004580140045C014024040024E9
:103498000068704770B50468154682B00E46226A07
:1034A8000698012AC4F848129AB2C4F85402C4E92A
:1034B800935311D0294604F12800019204F0C0FF6B
:1034C800636A019A012B10D0294604F1C00004F068
:1034D800B7FF002002B070BD04F12800019205F08A
:1034E80041F8636A019A012BEED1314604F1C0001C
:1034F80005F038F8002002B070BD00BF03681B69F2
:10350800042B05D8044A02EB830393ED000A7047A5
:103518009FED020A704700BF2091000800803B47DA
:103528000368D3F858027047704700BF08B500F029
:1035380027FABDE8084001F007B900BF704700BF8F
:1035480000F02ABA00F02EBA2DE9F04FCFB00446A9
:103558004C2200210AA805F083FD2022002102A8A0
:1035680005F07EFDBC2200211EA805F079FD022091
:1035780002F01EFA23680022012B3DD05E4B022583
:103588000192C821DA6A22F00102DA62DA6A03F5E6
:10359800113302F0010201929A6942F440429A61A1
:1035A8009B6903F440430193019B544B9A6992042D
:1035B800FCD5534A022404204FF0010C936A2126BB
:1035C8004FF4803723F00303234393620523082233
:1035D8001590189300230AA81691CDF840C01794A7
:1035E80019941A92CDE91344CDE91B33CDE90A6742
:1035F80002F0F0FEC0B1FEE7404B04250092F02136
:103608009A6942F440429A619A69A3F5113302F427
:1036180040420092DA6A42F00102DA62DB6A03F0A1
:1036280001030093009BC0E73F26032700220823DD
:10363800294602A8CDE90267CDE9042340264023A4
:103648004FF480624027CDE90823CDE9066703F0EF
:1036580001FA034600B1FEE780220A260227002568
:1036680034924FF4807233948024439200224FF0B6
:1036780064084FF008091EA8CDE93B334FF4805386
:1036880035934FF4803346930623CDE92267CDE97D
:10369800244540F22716102704242025CDE92623A7
:1036A8004FF480620023CDE92867CDE92A45CDE9AA
:1036B8002C230FF23C0BDBE900AB00260227002489
:1036C800002500224FF44013CDE91EABCDE9208937
:1036D800CDE92E67CDE93045CDE93E2303F0E2FB85
:1036E80000B1FEE702F08AF94FB0BDE8F08F00BFE5
:1036F80009130F0304000000000400580048025892
:1037080000440258F0B505460C4685B00126D1E9BB
:10371800000185E8030000F005F92846FFF714FFCB
:10372800002500F0C5FF4FF04053384A6846019322
:103738004FF48073ADF80060CDE9022300F0DAFFA2
:103748004FF0404340F20111192268460193ADF849
:103758000E108DF808208DF801608DF80D508DF849
:103768000A5000F0C7FF042000F0B2FF05F034FA59
:1037780005F010F9237913BB63799BB1BFF34F8F21
:10378800BFF36F8F224B0022C3F85022BFF34F8F35
:10379800BFF36F8F5A6942F400325A61BFF34F8FFB
:1037A800BFF36F8F0022002369461A48CDE9002332
:1037B80005F0A0F9174805F005FA05B0F0BD144961
:1037C800C1F88450BFF34F8FD1F8800043F6E077FB
:1037D800C0F34E32C0F3C900520102EA070503469E
:1037E80045EA8376013BC1F860625E1CF8D1203A55
:1037F80012F1200FF1D1BFF34F8F4B6943F480339F
:103808004B61BFF34F8FBFF36F8FB5E70E00010316
:1038180000ED00E0DC08002403480023034A0449C3
:10382800036005F0E5BB00BFDC08002400000024AD
:103838003135000830B4194C0022194BD4F88810DF
:10384800184841F47001184DC4F888101C681749CD
:1038580044F001041C601A611C68204018609A61D9
:10386800DA611A629A62DA621A635A639A63DA63ED
:103878001A645A64186820F4802018601A662B6845
:103888001940B1F1005F02D2094B01221A60034BC3
:103898004FF0006230BC9A60704700BF00ED00E056
:1038A800004402587FEDF6EA0010005C0000FFFFBC
:1038B80008810051024B027853F82200704700BF7C
:1038C80064910008024B427833F81200704700BF39
:1038D80044910008704700BF0F4B1B780BB90120BB
:1038E800704710B504464FF47A700C4AB0FBF3F3F6
:1038F8001068B0FBF3F000F0C3FE0F2C00D808B13D
:10390800012010BD002221464FF0FF3000F05CFE80
:10391800034B00201C6010BD100000240800002488
:103928001400002470B5124C032000F039FE114E2B
:1039380002F0F0FFA26910490346C2F303220F20E8
:103948000E4D8A5C02F01F02D3403360A269024028
:103958008A5C02F01F02D3402B60FFF7BDFF10B155
:103968000124204670BD0446FFF7B4FF204670BD11
:103978000044025808000024349100080C00002478
:10398800034A044B11681B780B441360704700BF4F
:10399800E008002410000024014B1868704700BF9D
:1039A800E008002438B50446FFF7F6FF0546631C17
:1039B80002D0044B1B781C44FFF7EEFF431BA342C5
:1039C800FAD338BD10000024014B1868000C70476A
:1039D8000010005C704700BF806B08B5FFF7FAFF66
:1039E80008BD00BF836B5A6D12F0500F5A6D10B5A9
:1039F8001DD1196842F400725A650A6812F0080F5E
:103A0800CA681BD012F4406F0DD1CA6894040AD456
:103A18005A6D22F480725A655A6DD10403D45A6DD6
:103A280042F001025A651846FEF7A6FC10BDD20600
:103A38000AD4DB6CBDE81040DB6C18479007E7D070
:103A48001846FEF799FCF1E71846FEF73BFD10BD56
:103A5800806B08B5436D43F040034365836D43F0C5
:103A680004038365FEF72EFD08BD00BFF0B50022F4
:103A780083B0019290F85020012A00F01B81034680
:103A880001201A6883F850009468660700F189805D
:103A98000C68C4F31305002D40F08E80C4F3846CC9
:103AA80000FA0CF04C681F26D569A7093440284352
:103AB80002F1300507F00C07A640D0610CFA04F4B7
:103AC800785920EA0600204378519068450771D458
:103AD800956815F0080548D10C6802F1140607200E
:103AE8008F684FEAD45CC4F304540CF0040C00FA59
:103AF80004FE07FA04F4C64F5CF8060020EA0E003C
:103B080020434CF80600386800F07040B0F1805F40
:103B180000F0C880D068D66810F0100F486940F0EF
:103B2800E980C6F38206760000FA06F60F69042FCC
:103B380000F0C38002F16004086854F827C000F060
:103B4800F8400CF0004C40EA0C00304344F82700E1
:103B58000E694F7E54F82600012F20F0004008BF60
:103B68004FF00045054344F826509068C40716D422
:103B7800CE68086806F01807A64CD2F8C050FC407A
:103B8800C0F31307DFF8B8C2044025EA0705664505
:103B980044EA0504C2F8C04046D0002816DB0020DD
:103BA80003E05A6D42F020025A65002283F8502043
:103BB80003B0F0BD9068D8E794FAA4F5B5FA85F596
:103BC800C4F3846C05F01F04A0406BE792498A4255
:103BD80000F0B68001F580718A4200F0B1808F4E06
:103BE8008F4DA968B46801F0E076E44304F001045D
:103BF800002C00F0B3808B4CA04200F0E6808A4C89
:103C0800A04200F01F81894CA042C8D14902C6D405
:103C180082498A42C3D1AA68002022F0E072324366
:103C280042F48002AA60C0E7002F69D090FAA0F49D
:103C3800B4FA84F4013404F01F04092C00F2A380C0
:103C480090FAA0F4B4FA84F490FAA0F50126B5FA33
:103C580085F501343544A40605F01F0504F0F84441
:103C680006FA05F52C4390FAA0F0B0FA80F030443B
:103C780000F01F0000EB400000052043C70D02F1D3
:103C88001405C0F304504FF0070C07F004078E68C2
:103C98000CFA00FC7C59864024EA0C003043785129
:103CA80008687AE7D6684869C6F38206760000FA9B
:103CB80006F63BE7022003B0F0BD106E0D6800F079
:103CC800F840AC06B0EB856F30D0506E00F0F8408D
:103CD800844226D0906E00F0F84084422BD0D06EFB
:103CE80000F0F84084427FF440AFD06E20F00040EE
:103CF800D0663AE7760806F0080600FA06F615E7F1
:103D0800800E441C04F01F06092E2DD8A406012598
:103D180006EB460004F0F84405FA06F600053443BD
:103D2800ABE7506E20F000405066D3E7106E20F0ED
:103D380000401066C9E7906E20F000409066CEE71C
:103D48003B49354E3B4C0D468968B768A46801F07D
:103D5800E0763C43E44304F0010449E75A6D01204E
:103D680042F020025A6520E706EB46000127A50627
:103D78001E3807FA06F605F0F8450005354340F009
:103D8800007028437AE790FAA0F5B5FA85F590FA1D
:103D9800A0F40126B4FA84F401353444AD0604F0E5
:103DA8001F0405F0F84506FA04F4254390FAA0F438
:103DB800B4FA84F4344404F01F0404EB4404A4F17A
:103DC8001E00000540F00070DBE708023FF5E7AE93
:103DD80012498A427FF4E3AE174AA9681268174865
:103DE80021F0E07192093143A0FB020241F4000185
:103DF8009209A96052000192019A002A3FF4CFAEBD
:103E0800019A013A0192019A002AF9D1C7E600BF46
:103E18000010005CFFFF0F00002002400060025805
:103E280000630258000084CB000052C70000B8CFDE
:103E3800002302400021024008000024632D3E05B3
:103E48000000FF4711F080707FF4A9AE05498A424F
:103E58007FF4A5AEAA6822F0E072324342F0807285
:103E6800AA60A2E60060025803689A68D20701D5E2
:103E7800002070479968214A114270B504462AD13A
:103E880099681F4A0A4042F001029A60FFF784FDD0
:103E980023681C4A0546934226D002F58072934255
:103EA80022D0194A9268164E0AE09A68324042F0C7
:103EB80001029A60FFF770FD401B02280BD82368A7
:103EC8001A68D20717D49A68D107EED5FFF764FDB0
:103ED800401B0228F3D9636D012043F0100363658A
:103EE800A36D0343A36570BD084A9268D006DAD073
:103EF800074A9342D7D1002070BD00BF3F00008021
:103F0800C0FFFF7F002002400063025800230240E8
:103F1800002102402DE9F0413B4D044600680F4660
:103F28001646A84219D0394B984216D0384DAB687E
:103F38008068420716D494F85020012A12D003F062
:103F48001F080123B8F1090F84F850300DD9002358
:103F5800012084F85030BDE8F0812E4DAB688068B0
:103F68004207E8D50220BDE8F08140F2212323FA78
:103F780008F3DB4313F00105E9D12046FFF774FF8E
:103F880000283AD1626D244B2568134043F48073AE
:103F98006365B8F1000F02D01C4B9D4203D0636DDE
:103FA80023F480136365636D13F4805329D0A36DE4
:103FB80023F00603A365E06C4FF0000CDFF868E01F
:103FC80033463A461C21154F154EC0F83CE00764AD
:103FD800C664296005F1400184F850C06E6846F057
:103FE80010066E6000F066FE22680E4B91680B406A
:103FF80043F004039360BDE8F08184F85050BDE8B5
:10400800F081A365D7E700BF0020024000210240ED
:104018000063025800230240FEF0FFFFE139000868
:10402800593A0008C0FFFF7FED39000838B503682A
:104038009A68910702D59B68002038BD9A68D20714
:1040480023D59A68044602F00D02012A08D0636D50
:10405800012043F010036365A36D0343A36538BDD6
:10406800986803210A4A024042F002029A601960E5
:10407800FFF792FC054604E0FFF78EFC401B022880
:10408800E5D823689B68DB07F6D4002038BD00BF5D
:10409800C0FFFF7F38B55A4A04460368934249D0A7
:1040A80002F58072934245D0564B9B6813F4403F0B
:1040B80014BF01230023EBB102F0E6FD6368054657
:1040C800B3F5003F00F08B80B3F5403F73D0B3F5F4
:1040D800803F00F08480FFF777FC41F203039842A9
:1040E8001FD8494B9D4260D92268936843F4807376
:1040F800936038BD4FF4002003F04CFE636805461A
:10410800B3F5101F75D01DD9B3F5201F5BD0B3F5DB
:10411800301FE0D1FFF758FC41F20303984244D91D
:104128002D0A3A4B9D422ED82268936823F4407397
:10413800936038BD364B9B6813F4403F14BF01238E
:104148000023B8E7B3F5E01F3FD004D9B3F5001F4B
:10415800C1D14509BFE7B3F5801F06D00AD9B3F529
:10416800A01F02D0B3F5C01FB5D19B0C5B00B5FBF7
:10417800F3F5B0E7B3F5002FF7D023F40022B2F53A
:10418800802FF2D0A7E7234B234A2B4493421ED912
:10419800224B234A2B449342226893682BD823F45A
:1041A800407343F40073936038BD2268936823F426
:1041B8008073936038BD8508FFF706FC41F203035E
:1041C8009842AED88DE7C50985E7050983E72268D7
:1041D800936823F4407343F48073936038BD1B0CD9
:1041E800B5FBF3F5FFF7F0FB41F20303984298D8CB
:1041F80077E785096FE743F44073936038BD00BFE4
:104208000020024000630258002D3101105E5F005B
:1042180000230240EFA1A0FF0F5E5F00DF4341FFD4
:104228001FBCBE0070B5002382B00193002800F0C7
:10423800CF80456D0446002D00F0B9802268936850
:104248009D0003D59168704B0B4093609368D8002C
:1042580015D46E4B90681B686D4D9B096D49A5FB85
:10426800035301409B0941F0805191600193019BE8
:104278002BB1019B013B0193019B002BF9D1936862
:10428800D90024D4636D012543F010036365A36D41
:104298002B43A365936813F0040F636D1DD1DB06F0
:1042A8001BD4636D23F4817343F002036365936841
:1042B800DE0728D4584B9A4217D003F580739A42E8
:1042C80013D0564B9B68D9071DD4554A15E09368FF
:1042D800002513F0040F636DE1D0636D012543F0F1
:1042E80010032846636502B070BD4B4A4D4B926877
:1042F8009B681343D80706D44B4A9368616823F434
:104308007C130B439360FFF75FFB41F20303A16843
:104318009842237F51D8667D1A04206B42EA4632C0
:1043280002430A43012B03D1236A013B42EA434279
:10433800636A23B103F47873A16A0B431A432368B1
:104348003A49D86801400A43DA609A6812F0040FC3
:104358009A681CD112071AD4D968354A207D0A40B8
:10436800E16A42EA80320A43DA6094F83820012A86
:104378003AD01A6922F001021A611A692046616B63
:1043880022F070420A431A61FFF784FE2368E2684C
:10439800012A21D01A6B22F00F021A63636D284696
:1043A80023F0030343F00103636502B070BDFDF71A
:1043B8008FFFA56584F8505040E71029ABD1607D88
:1043C8001A04216B42EA40320A4342F01C02A9E770
:1043D8000125284602B070BD196BA26921F00F01B2
:1043E800013A0A431A63D9E71869124ED4E9102131
:1043F8000640A06C0A43E16B3243024342EA0142A1
:1044080042F001021A61B8E7C0FFFF5F080000240C
:10441800632D3E05C0FFFF6F002002400060025878
:1044280000630258002102400023024003C0F0FF4D
:10443800FCBFFFFF1EF800FCF0B50D4690F85010C9
:1044480083B00026012901963ED001230446174671
:1044580080F85030FFF7EAFD636DE0B91C4E07F0B5
:104468008042216805F480351E401A4B1A4F46F0E9
:10447800020666658E68334013432B4343F00043BE
:104488008B608B68002B0EDB636D23F0030343F016
:104498000103636502E043F010036365002384F8B9
:1044A800503003B0F0BD019B01330193019BBB4227
:1044B800E7D9636D0022012023F0120384F850200D
:1044C80043F010036365ECE7022003B0F0BD00BFC2
:1044D800FDEEFFFFC0FFFE3FFF955A55F0B490F880
:1044E80050200E68012A49D00346294A01201C6839
:1044F80083F85000944208D05A6D002142F02002FF
:1045080083F850105A65F0BC7047224DAA685207CC
:104518000AD5A2685A6D012042F020025A6500228D
:1045280083F85020F0BC7047A06810F00400F1D167
:10453800C6B1DFF868C04F68DCF8082022F44042B2
:104548003A43CCF80820A468AA682243D40713D4B5
:104558008A68DCF808401049164321400E43CCF81D
:104568000860DCE70D498A6822F440428A60A06846
:10457800AA680243D00704D50020D0E70220F0BC87
:1045880070478C683046044A22408A60C7E700BFFB
:104598000020024000210240E0F0FFFF002302401B
:1045A80007490002074BCA6800F4E06010B44FF6F0
:1045B800FF0422405DF8044B10430343CB6070476F
:1045C80000ED00E00000FA05194BDB68C3F3022395
:1045D80030B4C3F107051C1D042D28BF0425062C83
:1045E80019D9033B4FF0FF349C4022EA04024FF0F4
:1045F800FF34002804FA05F421EA040101FA03F162
:1046080041EA02010ADB09010A4BC9B2034483F8F3
:10461800001330BC704700221346E8E700F00F0093
:104628000901054BC9B20344197630BC704700BF75
:1046380000ED00E000E100E0FCEC00E0002807DB12
:1046480000F01F0101234009024A8B4042F8203044
:10465800704700BF00E100E000280DDB430901229C
:1046680000F01F000549203302FA00F041F823004A
:10467800BFF34F8FBFF36F8F704700BF00E100E0BB
:104688000138B0F1807F0DD2074B0022072130B4EA
:10469800F025064C5860104684F823509A6019603B
:1046A80030BC70470120704710E000E000ED00E0EA
:1046B800BFF35F8F044A00200449536A23F4803310
:1046C80053624860704700BF00ED00E090ED00E0E5
:1046D800064A40F00100064B5860536A43F48033A1
:1046E8005362BFF34F8FBFF36F8F704700ED00E049
:1046F80090ED00E0124A437893600178E9B143688D
:1047080070B4D360C37A047B1B06857A867B43EA40
:104718000473447B0B43017A43EAC543C57B43EAF0
:104728008443447A43EA464343EA054343EA04237D
:1047380043EA410370BC13617047D160116170474F
:1047480090ED00E0704700BF08B5FFF7FBFF08BD1C
:104758000268354B354930B4354C364DA24218BF46
:104768009A4204F148040CBF012300238A4208BF7F
:1047780043F001034831AA4208BF43F0010348351A
:10478800A24208BF43F0010348348A4208BF43F0FD
:10479800010301F56271AA4208BF43F0010305F560
:1047A8006275A24208BF43F0010304F562748A42AD
:1047B80008BF43F001034831AA4208BF43F0010390
:1047C8004835A24208BF43F0010348348A4208BF73
:1047D80043F001034831AA4208BF43F00103A24253
:1047E80008BF43F001038A4208BF43F0010313B92D
:1047F800114B9A4213D1D3B21049114C103BA1FB73
:1048080003515F2B0F4BC1F3021103EA0203615CF2
:1048180088BF0433C1658365184630BC704722F0F1
:10482800FF038365F8E700BF100002404000024024
:104838002800024058000240B8040240ABAAAAAAC5
:104848009491000800FCFFFF0368294A294930B405
:10485800294D2A4CAB4218BF934205F13C050CBFC9
:1048680001220022A34208BF42F001023C348B42DD
:1048780008BF42F001023C31AB4208BF42F00102DE
:10488800A34208BF42F001028B4208BF42F0010276
:1048980012B91B4A934213D1DBB21A4D1A4A0121AD
:1048A800083B1A4CA5FB0353446602EB1312C3F3EF
:1048B8000413920001FA03F30266836630BC704762
:1048C800DAB21349134C1944103AA829A4FB02235D
:1048D8004FEA131300D808330F4A03F01F050121CC
:1048E8000E4C1A44A9404466920081660266E5E7C8
:1048F80008540258445402581C5402583054025860
:1049080094540258CDCCCCCC00960016805802584E
:10491800F0FBFDBFABAAAAAA0082001080080240E3
:10492800F8B50446FFF738F8002C00F0DC8023685F
:104938000546974A934249D01832934246D03032BE
:1049480094489549834218BF934200F148000CBF30
:10495800012200228B4208BF42F00102303183421B
:1049680008BF42F0010230308B4208BF42F001021A
:1049780001F55C71834208BF42F0010200F55C70EA
:104988008B4208BF42F001023031834208BF42F037
:10499800010230308B4208BF42F0010230318342BD
:1049A80008BF42F0010230308B4208BF42F00102DA
:1049B8003031834208BF42F001028B4208BF42F007
:1049C80001021AB9754A934240F0FC800222002184
:1049D80084F8352084F834101A6822F001021A602D
:1049E80005E0FEF7D9FF431B052B57D823681A6843
:1049F800D107F6D4D4E9022120690A431F68D4E913
:104A0800051602430A436649D4E90705324339408B
:104A18000243606A2A43042841EA020145D019602A
:104A28005A6922F00702104358612046FFF790FEAA
:104A3800E26D3F2302F01F02934083602046FFF798
:104A480003FFA368802B18D06368256EDAB2013B98
:104A5800D4E91910072B2A60486015D8501E07287A
:104A680043D9626FD4E91B3100201860002001236C
:104A78004A60606584F83530F8BD0023A16ED4E93A
:104A8800180263600360516000230020C4E91B33EF
:104A980063670123606584F83530F8BD202203235D
:104AA8000120626584F83530F8BDD4E90B50A26A5C
:104AB800284301431960586920F00700104340F06B
:104AC8000400002DB0D0002E45D1012A5AD032F072
:104AD8000202A9D1EA01A7D501234022184662653E
:104AE80084F83530F8BD0120F8BD21682D4B2E4ED5
:104AF8002E4DB14218BF994206F128060CBF01237A
:104B08000023A94208BF43F001032835B14208BF7A
:104B180043F001032836A94208BF43F001032835B2
:104B2800B14208BF43F00103A94208BF43F00103A3
:104B38003BB91F4B994204D01E4B1F4913449B009D
:104B480003E01E4B1E4913449B0001228240C4E926
:104B58001B31626788E7B6F5005F04D0022ABBD92B
:104B6800032AB7D060E7032A3FF65EAF01A151F8E8
:104B780022F000BFE14A0008DD4A0008E14A0008C7
:104B88008D4B0008B5F1C07F7FF44EAFA4E700BF9E
:104B9800100002404000024070000240B804024089
:104BA8003F8010FE085402581C54025830540258D2
:104BB800945402583F820010400902403F96001664
:104BC80040590258334A344934488B4218BF9342FB
:104BD80001F12801324D0CBF01220022834208BF97
:104BE80042F001023C308B4208BF42F001023C31E6
:104BF800AB4208BF42F00102834208BF42F0010203
:104C08008B4208BF42F0010212B9264A93423AD1B8
:104C180002220021244F84F83520A26884F8341039
:104C2800402A196807EA01072BD0802A0CBF4FF4E5
:104C38008041002122692046E668D2086569DFF8CC
:104C480070C042EAD602A66942EAD502E56942EA9C
:104C5800D602164E42EAD5021E44256A42EA1512C9
:104C6800ACFB06653A432D091143AD001960E565B3
:104C7800FFF76EFDE26D012302F01F0293404360CF
:104C8800DCE61021D6E7402203230120626584F880
:104C98003530F8BD085402581C5402583054025894
:104CA80058540258945402580F00FEFFF8ABFDA761
:104CB800CDCCCCCC002800F0C1802DE9F0410546D0
:104CC80090F83400012800F0BB80012095F83540A9
:104CD800844285F8340007D000224FF4006385F839
:104CE80034206B65BDE8F0812E6802277D4C7E4834
:104CF800DFF808C2864218BFA64200F1300085F8E6
:104D080035704FF000070CBF012400246F6566451D
:104D180008BF44F001040CF1300C744F864208BF00
:104D280044F001043030664508BF44F001040CF536
:104D3800627C864208BF44F0010400F56270BE42FE
:104D480008BF44F001044837664508BF44F0010431
:104D58000CF1480C864208BF44F001044830BE42BA
:104D680008BF44F001044837664508BF44F0010411
:104D78000CF1480C864208BF44F00104A0F58F608E
:104D8800BE4208BF44F00104A7F58F67664508BF17
:104D980044F00104BE4218BF86426F6E0CBF01206A
:104DA800002004433068D5E91A8C20F001003060F7
:104DB800D5F858E0C7F8048045D0BCF1000F02D000
:104DC800D5E91C074760EF6D3F20D5F8088007F04C
:104DD8001F07B8F1400F00FA07F0CEF80800306856
:104DE80020F480203060736025D0B160F2603368B1
:104DF8002A6C23F01E0343F0160333601AB133689C
:104E080043F0080333602B6E1A68D20303D51A687F
:104E180042F480721A60BCF1000F05D0DCF8003053
:104E280043F48073CCF800303368002043F001036A
:104E38003360BDE8F081B260F160D8E701207047C7
:104E48000220BDE8F081BCF1000F02D0D5E91C07B3
:104E580047602748DFF8A880264F464518BF864296
:104E680008F128080CBF01200020BE4208BF40F00E
:104E780001002837464508BF40F0010008F128081E
:104E8800BE4208BF40F001002837464508BF40F041
:104E98000100BE4208BF40F0010010B91648864222
:104EA8000FD1E86D0127D5F8088000F01F00B8F190
:104EB800400F07FA00F0CEF8040073600FD0B1601D
:104EC800F26033682A6C23F00E0343F00A03336060
:104ED800002A98D0336843F00403336093E7B26044
:104EE800F160EEE740000240580002401004024022
:104EF8000854025830540258945402587000024022
:104F08001C5402582DE9F0479F4A00259F4E82B055
:104F1800036882469E49846D934218BFB342019547
:104F280008BF01260D68276818BF002621684AD0E7
:104F38003032DFF86CE29748734518BF93420EF1A0
:104F4800480E0CBF01220022834208BF42F0010232
:104F58003030734508BF42F001020EF1300E834233
:104F680008BF42F0010200F55C70734508BF42F0CB
:104F780001020EF55C7E834208BF42F00102303028
:104F8800734508BF42F001020EF1300E834208BF9C
:104F980042F001023030734508BF42F001020EF1C1
:104FA800300E834208BF42F001023030734508BF1B
:104FB80042F00102834208BF42F001021AB9764A60
:104FC800934240F00B82DAF85C10082201F01F0CC3
:104FD80002FA0CF2174240F08D8127FA0CF2D20740
:104FE8000CD55A69100609D5012202FA0CF2A26002
:104FF800DAF8542042F00202CAF854204FF0040EA6
:105008000EFA0CF038425BD0002E4FD1634ADFF81D
:105018009091DFF880814B4518BF934209F1480908
:105028000CBF01220022434508BF42F0010208F1EB
:1050380030084B4508BF42F0010209F130094345E9
:1050480008BF42F0010208F55C784B4508BF42F002
:10505800010209F55C79434508BF42F0010208F1F5
:1050680030084B4508BF42F0010209F130094345B9
:1050780008BF42F0010208F130084B4508BF42F072
:10508800010209F13009434508BF42F0010208F165
:1050980030084B4508BF42F00102434508BF42F0C3
:1050A80001021AB93C4A934240F02F821A689207CB
:1050B80006D5A060DAF8542042F00402CAF8542059
:1050C800102202FA0CFC1CEA070F6FD0002E46D102
:1050D800324A33482F4E834218BF934200F14800AA
:1050E8000CBF01220022B34208BF42F00102303651
:1050F800834208BF42F001023030B34208BF42F099
:10510800010206F55C76834208BF42F0010200F511
:105118005C70B34208BF42F001023036834208BFD8
:1051280042F001023030B34208BF42F0010230368B
:10513800834208BF42F001023030B34208BF42F058
:1051480001023036834208BF42F00102B34208BF71
:1051580042F001021AB9104A934240F0DE811A68FF
:10516800C2F3C00212B3C4F808C01A68520300F1AF
:105178008B811A68D60503D41A6822F008021A60CF
:10518800DAF8403093B10DE02800024010000240E8
:105198000800002470000240B80402405800024091
:1051A8004000024050469847DAF85C1001F01F01B1
:1051B80020268E403E426AD0DAF80020A74BA84845
:1051C800A84F824218BF9A4200F130000CBF012359
:1051D8000023BA4208BF43F001033037824208BFB8
:1051E80043F001033030BA4208BF43F001033037BF
:1051F800824208BF43F001033030BA4208BF43F08F
:10520800010307F55C77824208BF43F0010300F50C
:105218005C70BA4208BF43F001033037824208BFCE
:1052280043F001033030BA4208BF43F0010330377E
:10523800824208BF43F001033030BA4208BF43F04E
:1052480001033037824208BF43F00103BA4208BF66
:1052580043F001031BB9844B9A4240F073811368F1
:10526800C3F300139BB1A6609AF83530042B13687A
:1052780000F0148113F4802F136800F02D811C03B3
:1052880040F13881DAF83C300BB150469847DAF8EB
:105298005430002B00F0DF80DAF85430D8071FD5DF
:1052A800DAF8002004248AF83540136823F0010353
:1052B80013606E4BA3FB0535AD0A02E01368D907EE
:1052C80004D5019B0133AB420193F7D900238AF837
:1052D80034301368DB074CBF032301238AF83530C9
:1052E800DAF84C30002B00F0B680504602B0BDE82A
:1052F800F0471847186840070AD5186820F00400D6
:105308001860A260DAF8542042F00102CAF854206A
:1053180027FA0CF2D2077FF571AE554A5148DFF8EB
:105328006481834218BF934200F148000CBF0122F8
:105338000022434508BF42F0010208F130088342C9
:1053480008BF42F001023030434508BF42F0010275
:1053580008F55C78834208BF42F0010200F55C70F2
:10536800434508BF42F0010208F13008834208BFF4
:1053780042F001023030434508BF42F0010208F113
:105388003008834208BF42F001023030434508BF6D
:1053980042F0010208F13008834208BF42F00102DE
:1053A8003030434508BF42F00102834208BF42F053
:1053B8000102002A7FF415AE002E7FF412AE0422FB
:1053C8001E6802FA0CF23A4240F09F80102202FA5C
:1053D8000CFC17EA0C0F3FF4E9AE79E6254A264E95
:1053E800264DB34218BF934206F128060CBF01228E
:1053F8000022AB4208BF42F001022835B34208BF81
:1054080042F001022836AB4208BF42F001022835BB
:10541800B34208BF42F00102AB4208BF42F00102AA
:1054280012B9174A934216D1DAF85C5004261A6862
:1054380005F01F05AE400E4273D0570771D5100412
:10544800666040F19F80D10300F1A280DAF848300D
:10545800002B7FF44AAF02B0BDE8F087100002408D
:105468002800024040000240B8040240B5814E1BAB
:1054780058000240085402581C540258305402582C
:1054880094540258700002401B681B037FF578AEE5
:10549800DAF84830002B7FF485AE87E623F0160350
:1054A800DAF840501360536923F0800353613DB329
:1054B800136823F0080313603F230025012203FA31
:1054C80001F1DAF85030A1608AF834508AF83520B2
:1054D800002B7FF40AAFBEE713F480737FF4D2AEDB
:1054E8001168012421F0100111608AF834308AF81B
:1054F8003540C7E6DAF84430002B7FF4C6AEC6E67E
:10550800DAF84830002BD3D1D6E710221E6802FA09
:105518000CFC17EA0C0F3FF449AE1A68C2F380027C
:1055280020E60226AE400E4210D097070ED56660E0
:10553800140433D5D0033DD4DAF84430002B7FF47B
:10554800D4AE88E71368C3F340038BE60826AE4061
:105558000E4280D011077FF57EAF19680122002620
:1055680021F00E0102FA05F51960DAF84C30656091
:10557800CAF854208AF834608AF83520002B7FF462
:10558800B4AE68E7920603D41A6822F004021A60DF
:10559800DAF84030002B7FF4A8AE5CE712F0200266
:1055A80008D11968012421F00A0119608AF8342009
:1055B8008AF83540DAF83C30002B7FF496AE4AE79B
:1055C800406D70472DE9F04F0D6883B0002D00F055
:1055D800C4800023DFF82C82DFF82CE201229A40F5
:1055E80012EA050C00F0B4804C6824F01007022F72
:1055F80040F0B680DF0803F0070A4FF00F0B0E6982
:1056080000EB87074FEA8A0AD7F820900BFA0AFBC3
:1056180006FA0AF64FEA430A29EA0B094FF0030B88
:1056280046EA09090BFA0AF604EA0B0BC7F82090B8
:105638006FEA060907680BFA0AFB27EA06064BEA2F
:10564800060606608768C4F3001609EA070BCF68E8
:105658009E4007FA0AF747EA0B078760476827EA78
:10566800020216434660C668E7008A6806EA090926
:1056780002FA0AF242EA0902C26069D5D8F8F4705F
:1056880023F0030903F003020F2647F0020709F18C
:10569800B0499200C8F8F47009F58069D8F8F47038
:1056A80006FA02FA07F0020701974D4F019EB84229
:1056B800D9F8086026EA0A0620D007F58067B842BC
:1056C8006BD0484FB8426DD0474FB84260D0474F73
:1056D800B84271D0464FB84273D0464FB84266D0F0
:1056E800454FB84272D0454FB84274D0444FB84283
:1056F8000CBF09270A2707FA02F21643C9F80860FF
:105708006FEA0C07DEF80020E60354BF3A404CEA83
:105718000202CEF80020A203DEF804604FF0B04287
:1057280054BF3E404CEA0606CEF804601668E20212
:105738004FF0B04254BF3E404CEA0606A4024FF078
:10574800B0441660526854BF3A404CEA02026260A4
:10575800013335FA03F27FF441AF03B0BDE8F08FAF
:105768004FEA430A4FF00309D0F800B0013F04EABA
:10577800090609FA0AF9012F2BEA090B06FA0AF6B3
:105788006FEA090946EA0B0606603FF66CAF59E76F
:10579800032707FA02F21643B0E7012707FA02F2D5
:1057A8001643ABE7022707FA02F21643A6E70627D5
:1057B80007FA02F21643A1E7042707FA02F2164392
:1057C8009CE7052707FA02F2164397E7072707FA27
:1057D80002F2164392E7082707FA02F216438DE70A
:1057E8000000025800080258000C02580010025825
:1057F8000014025800180258001C025800200258D1
:10580800002402580044025880000058002900F083
:10581800AC8000232DE9F04FDFF870A183B0DFF8EA
:105828007091DFF87081DFF870B14FF0010E0EFA59
:1058380003F414EA010C73D023F0030503F0030208
:105848000F26484555444FEAC202AF6806FA02F6E9
:1058580007EA0607019723D058456AD0464FB84251
:105868006AD0464FB84271D0454FB84273D0454FC1
:10587800B84266D0444FB84259D0DFF820E17045AD
:1058880074D0DFF81CE170456AD0DFF818E1704584
:1058980014BF4FF00A0E4FF0090E0EFA02F200E0A4
:1058A8000022019F974219D1AF684FF0B04227EA12
:1058B8000606AE60D8F8005025EA0C05C8F8005076
:1058C800D8F8045025EA0C05C8F80450156825EAEC
:1058D8000C051560556825EA0C0555605A00032625
:1058E800D0F800C00F2723FA06F5964003F0070208
:1058F80000EB85054CEA060C9200C0F800C0974002
:105908002A6A22EA07022A62826822EA060282607A
:10591800426822EA04044460C26822EA0606C660B5
:10592800013331FA03F280D103B0BDE8F08F4FF0B4
:10593800060E0EFA02F2B4E74FF0020E0EFA02F269
:10594800AFE74FF0050E0EFA02F2AAE74FF0030E8A
:105958000EFA02F2A5E74FF0040E0EFA02F2A0E7E3
:105968004FF0080E0EFA02F29BE770474FF0070E51
:105978000EFA02F295E700BF00080258000C025820
:105988000010025800140258001802580004005869
:10599800000002588000005800040258001C0258F9
:1059A800002002580024025802B909048161704796
:1059B80038B5114BDA68520704D4DB6803F00703E3
:1059C800834215D10C4AD368154623F007031843C0
:1059D800D060FDF7E1FF044605E0FDF7DDFF001BA1
:1059E800B0F57A7F06D86B689B04F6D5002038BDE1
:1059F800012038BD032038BD00480258024AD36848
:105A080043F08073D360704700480258F0B44C6A82
:105A180082B014B1B2F1406F30D18B69002B34D011
:105A28000E6A002E59D0056823438F68C869EF6154
:105A3800002800F0AE8013430F690C68B2F1406F84
:105A480043EA0603CE6843EA0003C86A43EA000350
:105A5800086B43EA000348690190486B43EA000376
:105A6800019843EA070343EA060343EA040343EAC7
:105A780080436B6160D04B68AB615DE08B6A056801
:105A8800013B2B618B69002BCAD10B6A002B44D0D8
:105A9800066823438D68C869F561002869D01343F7
:105AA8004D6B0F69B2F1406F43EA0003C86ACC68D6
:105AB80043EA0003086B43EA0003486943EA050325
:105AC80043EA070343EA040343EA8043736133D09C
